:100000000C945D000C9485000C9485000C94850084
:100010000C9485000C9485000C9485000C9485004C
:100020000C9485000C9485000C9485000C9485003C
:100030000C9485000C9485000C9485000C9485002C
:100040000C941C040C9485000C948C040C94660491
:100050000C9485000C9485000C9485000C9485000C
:100060000C9485000C94850000000008000201003B
:100070000003040700000000000000000000000072
:10008000250028002B0000000000240027002A0083
:10009000040404040404040402020202020203032E
:1000A0000303030301020408102040800102040836
:1000B0001020010204081020BE0411241FBECFEF3F
:1000C000D8E0DEBFCDBF11E0A0E0B1E0E6E4F3E1AF
:1000D00002C005900D92A436B107D9F722E0A4E63C
:1000E000B1E001C01D92A932B207E1F710E0CDE501
:1000F000D0E004C02197FE010E949609CC35D107BB
:10010000C9F70E9408050C94A1090C94000090E026
:10011000FC01EC55FF4F2491FC01E057FF4F849107
:10012000882399F090E0880F991FFC01EA57FF4F50
:10013000A591B491FC01E458FF4F859194918FB73C
:10014000F894EC91E22BEC938FBF089580E48093B8
:100150007C0080917A00806480937A0080917A009C
:1001600086FDFCCF809178002091790090E0922B61
:10017000089590E0FC01E859FF4F2491FC01EC55F3
:10018000FF4F3491FC01E057FF4FE491EE2309F457
:100190003CC0222339F1233091F038F42130A9F00A
:1001A000223001F584B58F7D12C0273091F02830C0
:1001B000A1F02430B9F4809180008F7D03C080913C
:1001C00080008F77809380000DC084B58F7784BDC9
:1001D00009C08091B0008F7703C08091B0008F7DFF
:1001E0008093B000F0E0EE0FFF1FE458FF4FA591A1
:1001F000B4919FB7F894611104C08C913095382365
:1002000002C0EC913E2B3C939FBF08953FB7F894FA
:100210008091700190917101A0917201B091730170
:1002200026B5A89B05C02F3F19F00196A11DB11D51
:100230003FBFBA2FA92F982F8827820F911DA11D8C
:10024000B11DBC01CD0142E0660F771F881F991FC9
:100250004A95D1F708958F929F92AF92BF92CF9215
:10026000DF92EF92FF926B017C010E9406014B012D
:100270005C01C114D104E104F104F1F00E94060113
:10028000DC01CB0188199909AA09BB09883E934072
:10029000A105B10570F321E0C21AD108E108F10807
:1002A00088EE880E83E0981EA11CB11CC114D104F5
:1002B000E104F10419F7DDCFFF90EF90DF90CF90CC
:1002C000BF90AF909F908F900895CF92DF92EF9262
:1002D000FF920F931F93CF93DF936C017A018B01F1
:1002E000C0E0D0E0CE15DF0581F0D8016D918D0121
:1002F000D601ED91FC910190F081E02DC6010995A8
:10030000892B11F02196EECF7E01C701DF91CF91AD
:100310001F910F91FF90EF90DF90CF900895FC0117
:10032000538D448D252F30E0842F90E0821B930B5A
:10033000541710F0CF96089501970895FC01918D00
:10034000828D981761F0828DDF01A80FB11D5D9637
:100350008C91928D9F5F9F73928F90E008958FEFA5
:100360009FEF0895FC01918D828D981731F0828D59
:10037000E80FF11D858D90E008958FEF9FEF0895B0
:10038000FC01918D228D892F90E0805C9F4F821B14
:1003900091098F739927089584E791E00E94C00125
:1003A00021E0892B09F420E0822F0895FC01848D3F
:1003B000DF01A80FB11DA35ABF4F2C91848D90E08F
:1003C00001968F739927848FA689B7892C93A0896A
:1003D000B1898C91837080648C93938D848D9813F4
:1003E00006C00288F389E02D80818F7D8083089587
:1003F000EF92FF920F931F93CF93DF93EC0181E075
:10040000888F9B8D8C8D981305C0E889F989808130
:1004100085FD26C0F62E0B8D10E00F5F1F4F0F736A
:100420001127E02E8C8DE8120CC00FB607FCFACF16
:10043000E889F989808185FFF5CFCE010E94D60138
:10044000F1CF8B8DFE01E80FF11DE35AFF4FF082D3
:100450009FB7F8940B8FEA89FB89808180620AC07C
:100460009FB7F894EE89FF896083E889F9898081D4
:100470008370806480839FBF81E090E0DF91CF91A3
:100480001F910F91FF90EF900895CF93DF93EC01B0
:10049000888D8823C9F0EA89FB89808185FD05C0A4
:1004A000A889B9898C9186FD0FC00FB607FCF5CFDE
:1004B000808185FFF2CFA889B9898C9185FFEDCF26
:1004C000CE010E94D601E7CFDF91CF91089580E061
:1004D00090E0892B29F00E94CC0181110C9400003E
:1004E0000895CF93DF93EC0160E08E810E94B90004
:1004F00061E08E810E94B90060E08E810E94B900A7
:100500008BE891E00197F1F7DF91CF910895CF92B9
:10051000DF92EF92FF920F931F93CF93DF936C01C3
:100520007C0187E0E80EF11CC0E0D0E0062F10E06F
:10053000B8010C2E02C0759567950A94E2F76170B8
:10054000F70181917F010E94B9002196C430D10545
:1005500079F7C601DF91CF911F910F91FF90EF9036
:10056000DF90CF900C947102CF92DF92EF92FF92C6
:100570000F931F93CF93DF93EC01F62E642F8C81A2
:100580000E94B9008D818F3F19F060E00E94B90090
:100590008F850F2D10E084FF25C06E0187E0C80E07
:1005A000D11CE12CF12CB8010E2C02C07595679579
:1005B0000A94E2F76170F60181916F010E94B9001F
:1005C000FFEFEF1AFF0A88E0E816F10461F7CE01A9
:1005D000DF91CF911F910F91FF90EF90DF90CF901F
:1005E0000C947102B80184E0759567958A95E1F7DE
:1005F000CE010E9487026F2DCE01DF91CF911F9116
:100600000F91FF90EF90DF90CF900C94870240E025
:10061000682F81E192E00C94B40281E00E9407030C
:100620008BE39FE10197F1F70895CF93DF93823039
:1006300028F09091200298609093200280932402E9
:100640001092250280E48093260280E180932702A5
:1006500080E580932802809115020E948700809196
:1006600016028F3F11F00E948700809117020E94AE
:100670008700C1E1D2E09E012151324080912002E9
:1006800084FD03C084E090E002C088E090E0219601
:100690002817390724F48E810E948700ECCF8BE362
:1006A0009DE00197F1F760E0809115020E94B9008A
:1006B00060E0809117020E94B900809116028F3F7E
:1006C00019F060E00E94B9008091200284FD20C0F2
:1006D00063E081E192E00E948702CBE4D6E4CE01A0
:1006E0000197F1F763E081E192E00E948702219790
:1006F000F1F763E081E192E00E94870283E592E0F6
:100700000197F1F762E081E192E00E94870215C053
:1007100080620E9407038BE496E40197F1F78091D1
:10072000200280620E94070383E592E00197F1F7BF
:100730008091200280620E940703809120028062E3
:100740000E94070384E0809321028CE00E9407034B
:100750000E940D0382E08093220286E0DF91CF9118
:100760000C94070341E00E94B40281E090E00895F8
:10077000089580E090E008950E949C09611571053C
:1007800079F0FB0101900020E9F73197AF01461B9A
:10079000570BDC01ED91FC910280F381E02D09946F
:1007A00080E090E008958F929F92AF92BF92EF9277
:1007B000FF920F931F93CF93DF93CDB7DEB7A1972F
:1007C0000FB6F894DEBF0FBECDBF7C01FA01CB019E
:1007D00019A2223008F42AE08E010F5D1F4F822EED
:1007E000912CA12CB12CBF01A50194010E94740988
:1007F000F901CA01015011096A3014F4605D01C0A9
:10080000695CD8016C93232B242B252B61F7B8014D
:10081000C7010E94BE03A1960FB6F894DEBF0FBEBB
:10082000CDBFDF91CF911F910F91FF90EF90BF90BF
:10083000AF909F908F9008951F920F920FB60F92D6
:1008400011242F933F938F939F93AF93BF938091E6
:100850006C0190916D01A0916E01B0916F0130918A
:100860006B0123E0230F2D3720F40196A11DB11D4C
:1008700005C026E8230F0296A11DB11D20936B0130
:1008800080936C0190936D01A0936E01B0936F0102
:100890008091700190917101A0917201B0917301EA
:1008A0000196A11DB11D8093700190937101A093D9
:1008B0007201B0937301BF91AF919F918F913F915E
:1008C0002F910F900FBE0F901F9018951F920F92AF
:1008D0000FB60F9211242F933F934F935F936F9313
:1008E0007F938F939F93AF93BF93EF93FF9384E78F
:1008F00091E00E94D601FF91EF91BF91AF919F913E
:100900008F917F916F915F914F913F912F910F90B8
:100910000FBE0F901F9018951F920F920FB60F9257
:1009200011242F938F939F93EF93FF93E091840172
:10093000F09185018081E0918A01F0918B0182FD27
:1009400012C0908180918D018F5F8F7320918E01F5
:10095000821751F0E0918D01F0E0EC58FE4F958F39
:1009600080938D0101C08081FF91EF919F918F91C4
:100970002F910F900FBE0F901F901895E4E7F1E0B4
:100980001382128288EE93E0A0E0B0E08483958326
:10099000A683B78384E091E09183808385EC90E027
:1009A0009587848784EC90E09787868780EC90E039
:1009B000918B808B81EC90E0938B828B82EC90E02A
:1009C000958B848B86EC90E0978B868B118E128EA4
:1009D000138E148EE1E1F2E01382128286E191E03F
:1009E000918380838CE084838FEF85838BE0868383
:1009F00085E0878384E0808783E0818782E0828747
:100A00001386148615861686178681E00C941503C6
:100A1000789484B5826084BD84B5816084BD85B5D9
:100A2000826085BD85B5816085BD80916E008160E5
:100A300080936E001092810080918100826080938B
:100A4000810080918100816080938100809180008D
:100A50008160809380008091B10084608093B100B8
:100A60008091B00081608093B00080917A008460B2
:100A700080937A0080917A00826080937A008091DE
:100A80007A00816080937A0080917A0080688093F8
:100A90007A001092C10082E00E9415036EE171E0BD
:100AA00081E192E00E94BE0360ED77E080E090E09B
:100AB0000E942B010E940D036CE271E081E192E043
:100AC0000E94BE03E0918401F091850182E0808361
:100AD000E0918001F09181011082E0918201F0911A
:100AE00083018FEC808310928C01E0918801F0915A
:100AF000890186E08083E0918601F0918701808101
:100B000080618083E0918601F09187018081886017
:100B10008083E0918601F0918701808180688083E5
:100B2000E0918601F091870180818F7D808389E04B
:100B30000E94870086E00E94870087E00E9487006D
:100B400010926401C1E00E94A600880F991F880FCF
:100B5000991FBC01990F880B990B0E944D0820E04A
:100B600030E040ED51E40E94AA076B017C016093E4
:100B70006701709368018093690190936A01E09125
:100B80002402E23010F4E15001C0E1E0F0E0EF5E59
:100B9000FD4F848980680E940703A7019601C70161
:100BA000B6010E946F09882319F069E371E01AC049
:100BB00046015701E894B7F82FEF3FEF4FE75FE7A3
:100BC000C501B4010E946F09811111C02FEF3FEFE1
:100BD0004FE75FE7C501B4010E94A50718163CF472
:100BE0006DE371E081E192E00E94BE037FC02FEFD0
:100BF0003FEF4FE75FE4C701B6010E94FD081816FA
:100C00001CF461E471E0EECF2FEF3FEF4FE75FECB4
:100C1000C701B6010E94A50787FDF3CF20E030E0B1
:100C2000A901C701B6010E94A50787FF0AC041E0DC
:100C30006DE281E192E00E94B402F7FAF094F7F8D5
:100C4000F0942AE037ED43EA5BE3C701B6010E9466
:100C500039074B015C010E941C086B017C010E945A
:100C60004B089B01AC01C501B4010E9438074B0140
:100C70005C012AE0B701A60181E192E00E94D30362
:100C800041E06EE281E192E00E94B40220E030E0B7
:100C900040E251E4C501B4010E9402094B015C012C
:100CA0000E941C086B01E12CF12C2AE0B701A6017F
:100CB00081E192E00E94D303C701B6010E944B0874
:100CC0009B01AC01C501B4010E94380720E030E06F
:100CD00040E251E40E9402090E941C08AB0160E05E
:100CE00070E02AE081E192E00E94D30368EE73E0B5
:100CF00080E090E00E942B010E94A6006C01990FF9
:100D0000EE08FF08F7FE0EC06DE284E791E00E9456
:100D1000F80144275527BA014C195D096E097F096E
:100D20002AE003C02AE0B701A60184E791E00E940F
:100D3000D30365E471E084E791E00E94BE030E9462
:100D4000A6009093660180936501E09124028F3E96
:100D500092407CF1E23010F4E15001C0E1E0F0E0BB
:100D6000EF5EFD4F848980680E94070368E471E0AC
:100D700081E192E00E94BE0364EF71E080E090E0C8
:100D80000E942B010E940D0361E089E00E94B900DE
:100D900064E670E080E090E00E942B0160E089E072
:100DA0000E94B90064E670E080E090E00E942B01B0
:100DB00016C081E0E11180E08195E82FF0E0EF5E60
:100DC000FD4F848980680E94070367E571E081E137
:100DD00092E00E94BE0360E089E00E94B900809129
:100DE00064018823F9F080916501909166018E3E3F
:100DF0009240C4F461E087E00E94B90060E086E0C0
:100E00000E94B90060E476E080E090E00E942B014F
:100E100060E087E00E94B90060E086E00E94B900CF
:100E2000109264018091640181111FC0809165015D
:100E3000909166018F3E9240C4F061E086E00E948E
:100E4000B90060E087E00E94B90060E476E080E0ED
:100E500090E00E942B0160E086E00E94B90060E013
:100E600087E00E94B900C09364010E9467026BCEC4
:100E70005058BB27AA270E9450070C94C3080E9411
:100E8000B50838F00E94BC0820F039F49F3F19F4EF
:100E900026F40C94B2080EF4E095E7FB0C94AC0831
:100EA000E92F0E94D40858F3BA1762077307840722
:100EB000950720F079F4A6F50C94F6080EF4E09569
:100EC0000B2EBA2FA02D0B01B90190010C01CA0104
:100ED000A0011124FF27591B99F0593F50F4503EAF
:100EE00068F11A16F040A22F232F342F4427585FA1
:100EF000F3CF469537952795A795F0405395C9F7B9
:100F00007EF41F16BA0B620B730B840BBAF0915070
:100F1000A1F0FF0FBB1F661F771F881FC2F70EC00F
:100F2000BA0F621F731F841F48F4879577956795E2
:100F3000B795F7959E3F08F0B0CF9395880F08F0CE
:100F40009927EE0F9795879508950E94880808F4D1
:100F500081E008950E94BE070C94C3080E94BC085B
:100F600058F00E94B50840F029F45F3F29F00C9436
:100F7000AC0851110C94F7080C94B2080E94D408E4
:100F800068F39923B1F3552391F3951B550BBB27B8
:100F9000AA2762177307840738F09F5F5F4F220FFD
:100FA000331F441FAA1FA9F335D00E2E3AF0E0E8F4
:100FB00032D091505040E695001CCAF72BD0FE2F3E
:100FC00029D0660F771F881FBB1F261737074807D2
:100FD000AB07B0E809F0BB0B802DBF01FF2793588A
:100FE0005F4F3AF09E3F510578F00C94AC080C949A
:100FF000F7085F3FE4F3983ED4F3869577956795BD
:10100000B795F7959F5FC9F7880F911D96958795BE
:1010100097F90895E1E0660F771F881FBB1F6217DD
:1010200073078407BA0720F0621B730B840BBA0B9B
:10103000EE1F88F7E09508950E94DC0888F09F571E
:1010400098F0B92F9927B751B0F0E1F0660F771FEC
:10105000881F991F1AF0BA95C9F714C0B13091F0E2
:101060000E94F608B1E008950C94F608672F782FD7
:101070008827B85F39F0B93FCCF3869577956795A7
:10108000B395D9F73EF490958095709561957F4F13
:101090008F4F9F4F0895E89409C097FB3EF49095B9
:1010A0008095709561957F4F8F4F9F4F9923A9F041
:1010B000F92F96E9BB279395F695879577956795D0
:1010C000B795F111F8CFFAF4BB0F11F460FF1BC014
:1010D0006F5F7F4F8F4F9F4F16C0882311F096E9A7
:1010E00011C0772321F09EE8872F762F05C0662355
:1010F00071F096E8862F70E060E02AF09A95660F0E
:10110000771F881FDAF7880F9695879597F90895C6
:10111000990F0008550FAA0BE0E8FEEF1616170608
:10112000E807F907C0F012161306E407F50798F070
:10113000621B730B840B950B39F40A2661F0232B89
:10114000242B252B21F408950A2609F4A140A69505
:101150008FEF811D811D089597F99F6780E870E0EA
:1011600060E008959FEF80EC089500240A9416161D
:10117000170618060906089500240A941216130685
:10118000140605060895092E0394000C11F4882313
:1011900052F0BB0F40F4BF2B11F460FF04C06F5F2F
:1011A0007F4F8F4F9F4F089557FD9058440F551F05
:1011B00059F05F3F71F04795880F97FB991F61F0D9
:1011C0009F3F79F087950895121613061406551F50
:1011D000F2CF4695F1DF08C0161617061806991FBC
:1011E000F1CF86957105610508940895E894BB27B1
:1011F00066277727CB0197F908950E94880808F49D
:101200008FEF08950E9415090C94C3080E94B50839
:1012100038F00E94BC0820F0952311F00C94AC0823
:101220000C94B20811240C94F7080E94D40870F3AF
:10123000959FC1F3950F50E0551F629FF001729F7B
:10124000BB27F00DB11D639FAA27F00DB11DAA1F8A
:10125000649F6627B00DA11D661F829F2227B00DD7
:10126000A11D621F739FB00DA11D621F839FA00D62
:10127000611D221F749F3327A00D611D231F849FB2
:10128000600D211D822F762F6A2F11249F57504009
:101290009AF0F1F088234AF0EE0FFF1FBB1F661F84
:1012A000771F881F91505040A9F79E3F510580F04D
:1012B0000C94AC080C94F7085F3FE4F3983ED4F329
:1012C000869577956795B795F795E7959F5FC1F7F1
:1012D000FE2B880F911D9695879597F908950E948A
:1012E0008808880B990B0895A1E21A2EAA1BBB1B34
:1012F000FD010DC0AA1FBB1FEE1FFF1FA217B307E2
:10130000E407F50720F0A21BB30BE40BF50B661FF7
:10131000771F881F991F1A9469F7609570958095BB
:1013200090959B01AC01BD01CF010895EE0FFF1F09
:101330000590F491E02D099481E090E0F8940C94EC
:06134000A109F894FFCFA3
:1013460000000000F80165018F014502C0019E0101
:10135600B20100000000B2036501B903B803416C95
:1013660067696C616E69796F722E2E0047415A204B
:101376004D494B544152493A006E616E00696E66A2
:10138600006F7666000D0A0047415A204B414341E3
:10139600474920564152005445484C494B4520592F
:0413A6004F4B0000A9
:107E0000112484B714BE81FFF0D085E080938100F7
:107E100082E08093C00088E18093C10086E0809377
:107E2000C20080E18093C4008EE0C9D0259A86E02C
:107E300020E33CEF91E0309385002093840096BBD3
:107E4000B09BFECF1D9AA8958150A9F7CC24DD24C4
:107E500088248394B5E0AB2EA1E19A2EF3E0BF2EE7
:107E6000A2D0813461F49FD0082FAFD0023811F036
:107E7000013811F484E001C083E08DD089C08234E0
:107E800011F484E103C0853419F485E0A6D080C0E4
:107E9000853579F488D0E82EFF2485D0082F10E0AE
:107EA000102F00270E291F29000F111F8ED06801E7
:107EB0006FC0863521F484E090D080E0DECF843638
:107EC00009F040C070D06FD0082F6DD080E0C81688
:107ED00080E7D80618F4F601B7BEE895C0E0D1E017
:107EE00062D089930C17E1F7F0E0CF16F0E7DF06D8
:107EF00018F0F601B7BEE89568D007B600FCFDCFD4
:107F0000A601A0E0B1E02C9130E011968C91119780
:107F100090E0982F8827822B932B1296FA010C0160
:107F200087BEE89511244E5F5F4FF1E0A038BF0790
:107F300051F7F601A7BEE89507B600FCFDCF97BE46
:107F4000E89526C08437B1F42ED02DD0F82E2BD052
:107F50003CD0F601EF2C8F010F5F1F4F84911BD097
:107F6000EA94F801C1F70894C11CD11CFA94CF0C13
:107F7000D11C0EC0853739F428D08EE10CD085E9AC
:107F80000AD08FE07ACF813511F488E018D01DD067
:107F900080E101D065CF982F8091C00085FFFCCF94
:107FA0009093C60008958091C00087FFFCCF809118
:107FB000C00084FD01C0A8958091C6000895E0E648
:107FC000F0E098E1908380830895EDDF803219F02E
:107FD00088E0F5DFFFCF84E1DECF1F93182FE3DFCA
:107FE0001150E9F7F2DF1F91089580E0E8DFEE27F6
:047FF000FF270994CA
:027FFE00040479
:0400000300007E007B
:00000001FF
